:020000040000FA
:06000000B6EF1CF0120037
:0600080004EF08F01200F5
:060018000CEF08F01200DD
:06100000B6EF1CF0120027
:06100800B2EF13F012002C
:06101800B5EF13F0120019
:06102A000200F63900008F
:10103000B000000015000000F4390000D2000000EC
:0410400002000000AA
:0C1044005EEC0DF0FB0EDBCFF3FFDB06D3
:10105000F35000090AE0ACEC0DF0FA0E17EC0EF0BC
:10106000F3E1151CF1E1010E01D0000E8DEF0DF042
:101070005EEC0DF03B0EE12402E3E168E652E16E26
:10108000010EDB6A020EDB6AF90EDBCFF6FFFA0E09
:10109000DBCFF7FFFB0EDBCFF8FF0800F550DF6E6C
:1010A000DF5002E1B1EF0CF0250EDF5C02E0A4EFAF
:1010B0000CF0030EDB6A040EDB6A050EDB6A060E1B
:1010C000DB6A070EDB6AC6EC0CF02D0EDF5C0CE071
:1010D0002B0EDF5C09E0200EDF5C06E0230EDF5CF8
:1010E00003E0300EDF5C1AE1DF50300A14E0130A2F
:1010F0000FE0030A0AE00B0A05E0060AE4E1030E2A
:10110000DB80E1D7030EDB82DED7030EDB84DBD787
:10111000030EDB86D8D7030EDB88D5D72A0EDF5C1B
:101120001BE1C2EC0CF010EC0DF010E0030EDB80C4
:1011300008680968130EDBCF0DF0140EDBCF0EF03C
:1011400023EC1BF0040E06C0DBFF03D0130EF9ECFA
:101150000CF0C6EC0CF00BD0090EDB6A67EC0DF05E
:1011600003E0DBEC0DF0FAD7090EF9EC0CF0030EFE
:10117000DBB0DB982E0EDF5C1BE1C6EC0CF02A0E18
:10118000DF5C0BE1C2EC0CF010EC0DF003E1130E90
:101190004BEC0DF0C6EC0CF00BD0090EDB6A67ECE3
:1011A0000DF003E0DBEC0DF0FAD7090E4BEC0DF07F
:1011B000680EDF5C07E1C6EC0CF0680EDF5C1DE139
:1011C000030E18D0740EDF5C17E07A0EDF5C14E0BB
:1011D000480EDF5C06E0540EDF5C03E05A0EDF5C75
:1011E00002E1020E07D06C0EDF5C03E06A0EDF5CEA
:1011F00004E1010E9EEC0DF0C9DBDF506E0A01E147
:101200007FD31E0A01E192D1200A01E18FD13F0A6A
:1012100001E149D11A0A01E146D10D0A01E143D1A8
:10122000200A01E140D13A0A01E13DD1200A01E161
:101230003AD1260A01E135D10D0A01E132D11A0A6B
:1012400001E1D9D0200A4AE0300A1FE0460A0EE048
:10125000250A01E083D3D950F90FE96EFF0EDA2099
:10126000EA6E010EEE5E000EEE5AEE5AACEC0DF098
:10127000250EE66E95DB03E1151C01E169D3A8ECB0
:101280000DF001E26BD3DB2A69D3080EDB6A040E92
:10129000DB50010806E2040EDB0470EC0DF0DB50BD
:1012A0008BDB080EDB5009E0030EDB50010B05E180
:1012B00072DB01E04DD3080EDB6A64DBEFCFDFFFAA
:1012C00020EC0EF003E1151C01E142D3A8EC0DF077
:1012D00001E3DB2A60DB01E141D33AD3070EDB50A7
:1012E00002080FE1ECEC0DF0030EB3EC0DF00E0E66
:1012F000EECFDBFF0F0EEECFDBFF100EEECFDBFFEE
:1013000020D0F70EDBCF17F0F80EDBCF18F0020E6F
:10131000175E000E185AF70E17C0DBFFF80E18C044
:10132000DBFF17C0E9FF18C0EAFFA3EC0DF0166A57
:101330000E0E14C0DBFF0F0E15C0DBFF100E16C023
:10134000DBFF0E0EDBCFE6FF0F0EDBCFE6FF100E4E
:10135000DBCFE6FF24EC19F0E552E552E552130E1F
:1013600007C0DBFF140E08C0DBFF060EDB5005E0F4
:10137000130EE7EC0DF001E26ADB0BEC0EF002E27B
:10138000130E37DBCEEC0DF006E0040EE7EC0DF0AB
:1013900002E2050E2EDB030EDBB005D0FCDA01E025
:1013A000D7D2080EDB6A090EDB6A0E0EDBCFF6FF22
:1013B0000F0EDBCFF7FF100EDBCFF8FF0800F55064
:1013C000DF6EDF5014E011EC0EF011E220EC0EF0B5
:1013D00003E1151C01E1BCD2BBDB01E3DB2A090EF2
:1013E000DB2AD9500E0FE96E000ECBDBE7D7D3DA3C
:1013F00001E1B4D2ADD2C6DA110EEECFDBFF120E90
:10140000EDCFDBFF110EDBCFE6FF120EDBCFE6FFE9
:1014100016EC19F0E552E552130EF3CFDBFF140E74
:10142000F4CFDBFF060EDB5004E0130ED0DB01E24D
:101430000EDB0BEC0EF002E2130EDBDAAFDB05E0A5
:10144000040EC5DB02E2050ED4DA030EDBB005D0D4
:10145000A2DA01E07DD2080EDB6A090EDB6A110E0A
:10146000DBCFE9FF120EDBCFEAFFEFCFDFFFDF506C
:1014700014E0D7DB12E2E4DB03E1151C01E168D2E2
:1014800067DB01E3DB2A090EDB2A110EDB2ADBCF47
:10149000E9FF120EE8E3DB2AE6D77DDA01E15ED24E
:1014A00057D2030EDB8E070EDB0410E195DB040E32
:1014B0005ADB0A0EEECFDBFF0B0EEECFDBFF0C0E7E
:1014C000EECFDBFF0D0EEECFDBFF6CD0070EDB5057
:1014D00003082CE1030EDBAE0DD0B2DA020E76DA91
:1014E000EFCF14F0156A166A176A14AE39D0156872
:1014F000166835D0F70EDBCF15F0F80EDBCF16F0FF
:10150000020E155E000E165AF70E15C0DBFFF80E20
:1015100016C0DBFF15C0E9FF16C0EAFFEFCF14F0DD
:101520000A0E14C0DBFF0B0EDB6A38D0070EDB504F
:10153000020809E1030EDBAE04D059DB16AE10D071
:101540000ED055DB0DD0030EDBAE12D079DA020ED1
:101550003DDAF9DA166A176A15AE02D0166817680E
:10156000E2DA0C0E16C0DBFF0D0E17C0DBFF1AD03F
:10157000F70EDBCF16F0F80EDBCF17F0020E165E7B
:10158000000E175AF70E16C0DBFFF80E17C0DBFF70
:1015900016C0E9FF17C0EAFFD6DAC5DA0C0EDB6A1F
:1015A0000D0EDB6A060EDB5005E1010EF36E050E33
:1015B000F3CFDBFF150EDB6A160EDB6AD950370F4F
:1015C000146E000EDA20156E390E14C0DBFF3A0ED1
:1015D00015C0DBFF380EDB6A080EDB6A0A0EAEDAD6
:1015E000DF50780A12E0200A10E0280A0CE0200AF6
:1015F0000AE03F0A06E00D0A02E0200A08E1020EB6
:1016000005D0080E03D0080EDF26100E97DA030E61
:10161000DBBE02D0DB92DB94DB50800B24E08ADA65
:10162000D890030EEB50000A08E6000EEE5C000EA8
:10163000EE58000EEE58000EEE5815E213DA0B6865
:101640000C680D680E685BEC1AF00A0E02C0DBFF36
:101650000B0E03C0DBFF0C0E04C0DBFF0D0E05C03C
:10166000DBFF2D0E08D0030EDBA202D02B0E03D021
:10167000DBA408D0200EF36E170EF3CFDBFF150EA0
:10168000DB2A02D0170EDB6A050EDB5003E1B7D967
:1016900001E189D0BA0E146E390E156E000E166E69
:1016A000070EDBCF17F0186A196A1A6A17C00BF019
:1016B00018C00CF019C00DF01AC00EF0D3D9A1EC6F
:1016C0001BF014500224F36E15500320F46E1650D4
:1016D0000420F86EF4CFF7FFF3CFF6FF0800090EF1
:1016E000F5CFDBFF580EDF5C0FE1610EF36E090EE4
:1016F0007BD90AE3200E146E090EDBCFE7FF1450EE
:10170000E75E090EE7CFDBFF070EDBCF14F0156AAB
:10171000166A176A0FDA14C00BF015C00CF016C069
:101720000DF017C00EF0EECF06F0EECF07F0EECFC3
:1017300008F0EFCF09F0A1EC1BF009C0EDFF08C0E5
:10174000EDFF07C0EDFF06C0EFFF390EDBCFE9FF6D
:10175000DB063A0EDBCFEAFF01E2DB06090EDBCF48
:10176000EFFF150EDB2A4BD995E1030EDBA61DD04A
:101770006F0EDF5C06E1C1D918E3150EDB285BDADA
:1017800014D0780EDF5C09E0580EDF5C06E0620ED4
:10179000DF5C03E0420EDF5C08E1020EF36E160E22
:1017A000F3CFDBFF02D0150EDB6A030EDB50100B0C
:1017B0000EE0040EDBCF14F0050EDB50D88014547D
:1017C00006E2060EDB5003E1040EDB5034DA95D955
:1017D0000AE2050EDBCFE7FF150EDB50E75E050ED4
:1017E000E7CFDBFF02D0050EDB6A040EDBCF14F07F
:1017F000160E45D9D880145414E2160EDBCFE6FF3E
:10180000150EDBCFE6FF040EDBCFE6FF050EDB5047
:10181000E552E75CE552D880E754E552D880E754BA
:101820005FD9030EDB50010B0BE1080EDB5008E023
:10183000B2D801E08DD0080EDB50BED8080EDB6AAE
:10184000170EDB5007E088D9170EF1D903E1151CFC
:1018500001E17ED0160EDB5016E07ED9300EE66E2A
:101860009FD802E1151C74E077D9DFCFE6FFDDECED
:1018700019F0E552E552E552F4CF15F00001F31CE2
:1018800002E1151C65E0050EDBCF14F0160EDB50EF
:10189000D880145409E2050EDBCFE7FF160EDB50AB
:1018A000E75E050EE7CFDBFF300EE66E050ECBD907
:1018B0004FE1390EDB2ADBCFE9FF3A0E01E3DB2AE9
:1018C000DBCFEAFF090EEFCFDBFFDB500EE044D9A0
:1018D000090EADD902E1151C3BE0390EDB2ADBCF46
:1018E000E9FF3A0EEDE3DB2AEBD755D831E1160ECE
:1018F000DBCFE6FF080EC3D8E552E7245DD82ED033
:10190000070EDB50030A1CE0010A14E0030A07E09B
:101910007BD9DBCFEEFF020EDBCFEDFF1FD0F5D87A
:10192000196A17AE02D0186819682CD8BCD819C02B
:10193000EEFF14D0EAD817BE186824D8B4D80ED059
:1019400063D9DBCFEFFF0AD07BD905E1151C03E19A
:10195000F368F46810D0FCD801E3DB2A79D94DEFA5
:1019600008F0010EDBCF14F0020EDBCF15F014C02F
:10197000F3FF15C0F4FF3B0EE15C02E2E16AE552C1
:10198000E16ECBD029D9020EB3EF0DF061D908007A
:10199000F550DF6E1200200EE66E080E23EF0EF0FB
:1019A000DDEC19F0E552E552E552F3CF14F0F4CF37
:1019B00015F00001F31C1200146E156AD950010FC6
:1019C0004DD91450EE261550ED221200185E000E6F
:1019D000195AF70E18C0DBFFF80E19C0DBFF18C04C
:1019E000E9FF19C0EAFF1200DBCFF4FFF350F45C0B
:1019F0001200DB50E76E040EE7CFDBFF12000A0E89
:101A0000DBCF14F00B0EDBCF15F00C0EDBCF16F096
:101A10000D0EDBCF17F01450151016101710120012
:101A2000130EEECFDBFF140EEDCFDBFF130EDBCF7B
:101A300014F0140EDBCF15F00001800E1514120007
:101A4000F70EDBCF18F0F80EDBCF19F01200050E01
:101A5000DB50E66ED950130F01D9E552E750EE6E18
:101A6000ED6A12000A0EDBCF06F00B0EDBCF07F09B
:101A70000C0EDBCF08F00D0EDBCF09F01200DBCF30
:101A8000E6FF150EDBCFE6FF050EDB50E552E7243F
:101A9000E552E7241200DB50CED8010EF36E060E9D
:101AA000F3CFDBFF1200EE50EFCFEAFFE96E16C076
:101AB000EEFF17C0EEFF18C0EEFF1200D9CFE6FF11
:101AC000DACFE6FFE1CFD9FFE2CFDAFF1200DFCFB6
:101AD000E6FFE66AA4EC1CF0E552E552F350120072
:101AE000E76E080EE7CFDBFF1200EECF14F0EECF6B
:101AF00015F0EFCF16F0176A1200050EDBCF14F0C9
:101B0000150EDB50D88014541200010EDBCF16F0F6
:101B1000020EDBCF17F0186A1200E552E5CFDAFFAC
:101B2000E7CFD9FF12000A0E14C0DBFF0B0E15C061
:101B3000DBFF1200D9500A0F2EEF0EF0F36E070EE6
:101B4000F3CFDBFF1200EECF14F0EFCF15F0120051
:101B5000010EDB2A020E1200FC0EDBCFE6FFFD0EAB
:101B6000DBCFE6FF1200145E000E155AF70E14C00C
:101B7000DBFFF80E15C0DBFF14C0E9FF15C0EAFF5C
:101B80001200DA20EA6EEF2AEECFF6FF000EEF2207
:101B9000EECFF7FFEF22EECFF8FF1200040EDBCFFF
:101BA000E6FF130EDB50E552E75C9ADFDB5004DF03
:101BB000060EDB501200090EDB500A0DF350DF2435
:101BC000D00FE76E090EE7CFDBFFC6EF0CF0DB505E
:101BD000F36E050EF4EF0CF0F70EDBCF14F0F80EF9
:101BE000DBCF15F01200DFCFE6FFD0EF0CF028DFDF
:101BF000030EECDE75EF0DF022EC08F0E552E55235
:101C0000E552E55200091200BDDEEE50EFCFEAFFCB
:101C1000E96E010E1200130EDB50F36E040EF4EFAA
:101C20000CF0040EDB50F36E090EF4EF0CF0DBCF7A
:101C3000E6FFD0EF0CF0E76E050EE7CFDBFF1200FA
:101C40008BDFF3EF0DF0DBCFE6FF86DFFCEF0DF06F
:101C5000D950F90FE96EFF0EC1EF0DF0E96E000EDD
:061C6000DA20EA6E12001A
:0A1C6600FBEC12F06A6A686A9F0E38
:101C70006B6EFB0E696E6D8C6D9C6E6ADFEC12F004
:101C8000DF6A0CEC13F010E2DF50040DF3CFE9FF34
:101C9000F4CFEAFF000EE926040EEA22EE6AEE6AAD
:101CA000EE6AEE6ADF2AEDD7160E706E68A604D0D3
:101CB000030EA1EC12F0FAD700019E6BA36BA46B8C
:101CC000A56B6D98080E966F040E976F8C6B8B6BDF
:101CD000FEEF12F0FBEC12F000018B510BE16D6A8C
:101CE000696A6DB602D06D86FCD70001010E8B6F5C
:101CF000160E6F6E8B0508E16DBA06D0686A696AC8
:101D000069806988020E8B6F6850040B04E069508B
:101D1000040B01E067D86DB24CD06850010B11E0A4
:101D20006950010B0EE09FDF0001040E8B6F040170
:101D3000200E026F040E036F080E016F006B8C0EF5
:101D400000136850100B07E06950100B04E044D8F2
:101D5000040EA1EC12F06850400B08E06950400BF3
:101D600005E007EC17F0060EA1EC12F06850200B0E
:101D700004E06950200B01E01ED86850020B06E019
:101D80006950020B03E008EC17F06A6A040E0001C8
:101D90008B5D0FE369A60DD0DF6A040EDF5C09E2FC
:101DA00068A607D06CCFABF0030ECBDB25D8DF2ABB
:101DB000F4D7FEEF12F070A00CD0EADBEF508008F1
:101DC00007E1C9DBEF50840803E1E2DB8C0EEF6E24
:101DD0007090050EA1EF12F06984040EB2DB6D82E3
:101DE00005EF17F06D9206EC17F0699468A403D024
:101DF000020EA7DBFBD71200FD0E0001AB1519E1A7
:101E00007E0EAB15E8407F0B040DF3CF8EF0F4CFC0
:101E10008FF0000E8E27040E8F238EC090F08FC09F
:101E200091F090756BEC13F002E11FEF0FF030EFC3
:101E30000FF0FD0EAB15040801E11AD812008BDB80
:101E4000EF50800B02E087DBEF6A00019A6B9B6B1F
:101E50009F6BA06B9E6B90D809EC17F0E7EF10F02A
:101E6000020E00019B5D02E171EF11F064EF0FF0D3
:101E7000C2DB71DBEF50400B01E0010EDF6E0001B1
:101E80009675080E8B5D09E122C46EFF6E50000846
:101E900002E2100E01D0040E8B6F9B0513E15DEC86
:101EA00013F0CDD9020E00019A5D03E154DB840EDC
:101EB00007D0DF5003E14FDBC80E02D04CDB880EA9
:101EC000EF6E01D001D89AD358EC13F0030EE1263F
:101ED000020E00019B5D26E16D50100B23E058DBE4
:101EE000EE52EF50146E156A080E14181BE11550CF
:101EF00019E16BEC13F016E1BCDBEF50800B12E143
:101F0000B8DBCADBDF6A88DB22E2DF508DDBDF5023
:101F1000EA6A200FE96E040EEA22E552E750EF6EFE
:101F2000DF2AF1D79B6BBEDBEF6A040E9619146EA5
:101F300097C015F0010E14C0DBFF020E97C0DBFF47
:101F4000010EDBCFE9FF020EDBCFEAFFEF6A0001F3
:101F5000A3AF0CD0A651A71107E005D0A7C0FAFF88
:101F60000001A651F96EFADF0001A39F030EE15CA8
:101F700002E2E16AE552FDD204012051600BE84221
:101F8000E842E842E842E842000901E0120021513B
:101F90000C0A43E00B0A3FE00C0A31E0010A22E0A0
:101FA0000B0A1EE0020A1CE0030A18E0080A10E00F
:101FB000010A0CE00F0A08E0030A01E01200000128
:101FC0009E8F080E8B6F12006EEF10F0CAEF11F0AB
:101FD00000018C0E9C6F000E9D6F0CD0A9EF10F0CD
:101FE0000EEF10F0245100019C6F9D6B8D0E9C270D
:101FF000000E9D239E81010E9F6F9E8F1200000197
:102000009E8F04012451EA6A8D0FE96E000EEA22C8
:1020100022C4EFFF12000BEF17F0120049DB040E91
:10202000E1260401220510E120511F0B00090CE1FB
:1020300000019E8F030E0401215D04E10001010EE9
:10204000AA6F02D00001AA6B0401225141E1205184
:102050001F0B02083DE124510F0B000939E000017C
:102060009E8F040124BF05D098DA920EE926000E57
:1020700004D093DA960EE926000EC2DA030E215D33
:1020800003E16EDA840E23D024510F0B156A700F12
:10209000146E0F0E1522020E14C0DBFF030E15C0C6
:1020A000DBFF020EDBCFE9FF030EDBCFEAFFEE9092
:1020B000ED5224AF06D054DAEF6ADF7451DA400EE5
:1020C00006D04EDA880EEF6EDF744ADAC80EEF6E75
:1020D000040EE15C02E2E16AE5524BD2800E04019B
:1020E000205D36E10001C00E9E6F04012351030AFA
:1020F0001EE0010A09E0030A29E100012A0E9C6F93
:10210000330E9D6F120E1FD0A6DAB20EF626330ED6
:1021100093DA020E0001F76A9C25F66E9D51F722B4
:102120000900F5CF9FF00A00F5CFA0F0120093DA76
:10213000B40EF626330E80DA9CC0F6FF9DC0F7FF82
:102140000800F55000019F6FA06B120000019E6B0C
:1021500012000BDA0401286B296B20511F0B020AB5
:1021600011E0030A0CE0010A22E100019E8F040144
:1021700028810001AA051BE10401288318D0000171
:102180009E8F15D000019E8F040124BF05D005DA73
:10219000920EE926000E04D000DA960EE926000E13
:1021A0002FDADED9EF50040B02E0010E286F000198
:1021B0009EAF07D0280E9C6F040E9D6F9E81020E6D
:1021C0009F6F020EE15C02E2E16AE552D2D16D98A6
:1021D00000019EBF07D0A3AF02D093DA28D062DA05
:1021E000840E26D0A3BF2AD0040120AF23D0000143
:1021F0009F510401265D0001A0510401275904E20A
:1022000026C49FF027C4A0F01AD80001010E9B6FCE
:1022100091D9B8D9800EEF6EBBD9EE52080EEF6E91
:10222000B7D93ADAB5D9800EEF6E47DA94D9C80E2D
:10223000EF6E1200000165DAC80EEF6E120095D93C
:102240000001080E9F5D000EA0590DE29FC0DEFF49
:10225000A0C0DDFF9A5102E1010E03D09A0506E10C
:10226000020E9A6F03D0080EDE6EDD6A74D9EF920B
:1022700072D9EF9070D9010EDB50EF126CD9EE528B
:10228000DFCFEFFF000EDB509F5F010EDB50A05B46
:10229000280EA86F040EA96F9EB10FD0E3D91BE0E2
:1022A0009CC0F6FF9DC0F7FF9C2B000E9D230800ED
:1022B000F5508ED9F3E2DB06F1D7D4D90CE09CC0FF
:1022C000E9FF9DC0EAFF9C2B000E9D23EF5080D9B3
:1022D000F4E2DB06F2D7020EE15C02E2E16AE552CB
:1022E00048D143D955D9EE52EFCFDFFFDFCF14F0FD
:1022F00014500001A45D000EA55903E2A4C0DFFF45
:1023000009D0DF50146E156AE850A45DA46F155013
:10231000A559A56F010EDB6ADF50F36E010EDBCF0E
:10232000F4FFF350F45C10E2010EDB507DD9A1C044
:10233000E9FFA2C0EAFFA12B000EA223E552E7505D
:10234000EF6E010EDB2AE8D7000ED880A455000EF0
:10235000A5550CE2CFD91CD9EF50400B03E189D928
:10236000C80E02D086D9880EEF6E0ED082D994D9CD
:10237000A651A71107E005D0A7C0FAFF0001A6519A
:10238000F96EFADF0001A39F020EE15C02E2E16A4E
:10239000E552EFD000019E8F12D9010EE66EE66A7B
:1023A000E66A8D0EE66E000E9DD922C48CF0040103
:1023B000225104E10001100E8B6F12000001200E6B
:1023C0008B6F0CEF17F0D1D8000EDE6E040EDD6EB1
:1023D000ECD8040DF350146E156A020E0F0B05E0D5
:1023E000D89015321432E806FBE1D8901436153631
:1023F000D89014361536D9CFE9FFDACFEAFF14505A
:10240000EE261550ED22ACD8EF9EFD0EDB5002E11A
:1024100058D901D05BD9EA22DECFEEFFDDCFEDFF48
:102420009FD8EF9C9DD8040EE926000EEA22EF8C7F
:10243000020EE15C02E2E16AE5529BD096D8FE0E04
:10244000DB50156A700F146E0F0EE0D8FD0EDB50D6
:10245000E66E86D8E552E750EE6EED6AFD0EDBA41F
:1024600002D0E66AF1D8FD0EDBA203D0010EE66EC3
:10247000EBD8020EE15C02E2E16AE5527AD075D84F
:10248000FE0EDB5004E10ED9840EEF6E05D08DD820
:10249000F5D88BD8010FF2D8020EE15C02E2E16AB6
:1024A000E55267D062D8FD0EDB5002E00FD901D0B3
:1024B00008D9A6D855D830D9FB0EDBCFEEFFFC0EDD
:1024C000DBCFEDFF4DD8EE52FA0EDBCFEFFF400E23
:1024D00047D8E850EF16880E43D8E850EF12FD0EAB
:1024E000DB5002E0F3D801D0ECD8EA22EF74DECF63
:1024F00014F0DDCF15F014C0F3FF15C0F4FF020E89
:10250000E15C02E2E16AE55234D0D2D8010EF36E0A
:10251000FC0EDB5004E0D890F336E806FCE1F31C37
:10252000146EFD0EDBCFE9FFFE0EDBCFEAFF145089
:10253000EF16E3D09ED8EE52080EEF6E9AD88CEFCD
:1025400013F0E66E680EE66E0F0EE66EDEDFE55205
:10255000E552E552120096C0E9FF97C0EAFF12006B
:10256000DECFE9FFDDCFEAFF1200A2D8020EE1269E
:102570001200E16EC2D0FE0EEA6ADB34FE0BEA36D0
:10258000E96E1200200EEE6E040EED6E39EF13F0C0
:102590008EC0E9FF8FC0EAFF120024510F0BE96ED5
:1025A000EA6AD890E936EA361200FD0EDB50E824DC
:1025B000166EFE0EDB50040DF35016241200000EB2
:1025C000E66EE66AE66A710EE66E0F0E72EF13F0C3
:1025D000E66EA8C0E9FFA9C0EAFFA82B000EA92358
:1025E000E552E750EF6EDF06010E1200280EEE6E88
:1025F000040EED6E12005CD8E6521200E5527DD05A
:10260000EA22EECFDEFFEDCFDDFF1200152214C06F
:10261000DEFF15C0DDFF1200DF50146E156A080ED4
:10262000145C000E15581200EA6A280FE96E040EB9
:10263000EA22EF50E66E1200F7220900F5CF9CF077
:102640000A00F5CF9DF01200FE0EDBCFE6FFBBDEE9
:10265000E552E55212002251F66EF76AD890F6362E
:10266000F7361200D9CFE9FFDACFEAFFEE50ED10CE
:10267000120090C0E9FF91C0EAFF1200040DF3CFF1
:1026800014F0F4CF15F0000E1426040EBFDF840EF4
:1026900067DFE850EF1212003FD8200EEE6E040EF6
:1026A000ED6E120047DF6EDF8C0EEF6EABEF12F0B7
:1026B000D9CFE6FFE1CFD9FF12004DDF2DD8F6EFDD
:1026C00012F059DF920EE926000E120054DF960E2A
:1026D000E926000E12005CDFEF503C0BE842E842B6
:1026E0000D081200E66EFCEC18F0146E050EE15EAB
:1026F000145012001FDFF6EF12F0E552E7CFD9FFBA
:102700001200020E9B6F27DFEE52EF6A24DFC80E25
:10271000EF6EF0DF39EF13F0020EE926000EEA2229
:022720001200A5
:0E272200010EE66ED2EC1CF0E5520000000045
:102730000000000000000000000000001200010E78
:10274000E66ED2EC1CF0E552000000000000000034
:102750000000000012000000000000000000000067
:1027600000001200B3EC17F01100D8CFE4FFE0CF67
:10277000E4FFE46EB3EC17F0E550E5CFE0FFE5CF02
:10278000D8FF100035D88C908C900001B15119E120
:102790006AEC0EF0040E00018B5D11E20001B2C084
:1027A00014F0B3C015F0B22B000EB323153407E2BA
:1027B000145000087D0E155402E2010EB16F54D87A
:1027C000E4D78C828C809EAAFED7C5EC1BF000015A
:1027D000786F610E785D04E1ACA2FED7610E03D084
:1027E000ACA2FED7620EE66E8DEC1CF0E552CDD7A2
:1027F0000F0EC11233EC0EF00FEF14F0D9CFE6FF3D
:10280000E1CFD9FF948E949CFE0EDB50AF6EB06A80
:10281000240EAC6E900EAB6E080EB86EC5D3F00EE3
:102820008C1695169388938A8150100B01E0010E47
:102830000001606F8150200B01E0010E616F00010B
:10284000BE6BBF6BC06BC16B010EC26F0001836BAF
:10285000846B856B866B7B6B7C6B7D6B7E6B650E97
:10286000E66ECCDFE552120085DB0001C25101E0CB
:102870008DDA200E00018B5D01E24AD26D50020B11
:1028800001E046D20001BE51BF1102E1000E08D0A6
:10289000BEC0E9FFBFC0EAFFEF50800B01E0010EB0
:1028A000000901E035D205010051370A01E117D2D4
:1028B000B60A01E102D2050A01E13BD1140A01E1A5
:1028C00027D1130A01E117D1010A01E107D1020A58
:1028D00001E1F0D0B10A01E1DFD0010A01E1CAD083
:1028E000140A01E1B9D0070A01E1A5D0010A01E10A
:1028F00083D0030A01E17ED0010A01E179D0370AD1
:1029000001E174D0010A70E0030A6CE0010A68E09A
:10291000070A63E0010A4EE0030A49E0010A36E0D3
:10292000190A2EE0010A25E00F0A1FE0010A16E04D
:10293000030A0EE0010A01E0EAD19EAAFED7C5EC27
:102940001BF00501406FACA2FED740C5E6FF15D0D5
:10295000ACA2FED7BFDA49EC19F005D0ACA2FED785
:10296000B9DA93EC1AF0E55235D001C5E6FF46DF3F
:1029700032D0ACA2FED7610EE66E8DEC1CF02BD0EF
:10298000D2DA460EE66E75EC1CF025D001C5E6FFE6
:1029900075EC1CF0E552050102510001B46FB56BF6
:1029A000CADA0001B4271550B523EBDA13D0F3ECE3
:1029B0001CF0ADD101C5E6FF50EC1BF0E55205015E
:1029C00002510001B66FB76BB6DA0001B627155099
:1029D000B723DDDAE552E5529AD1F6EC1CF097D137
:1029E0008C8895D18C9893D18C8A91D18C9A8FD1E7
:1029F0007CDA8DD1C69A8BD178DA0D0EE66E3A0E5E
:102A000063DAF3CF40F50D0EE66E1D0E5DDAF3CFFF
:102A100041F50D0EE66E3B0E57DAF3CF42F5C69A3E
:102A2000CCDA02E1000E03D00FDA01E0010E00095A
:102A300001E06DD16BD101C5E6FF3A0E45DAF3CF67
:102A400040F5BBDA02E1000E03D0FED901E0010E31
:102A5000000901E05CD15AD1ABDA3A0EE66E2ADA0F
:102A600002E1000E03D0F0D901E0010E000901E0FF
:102A70004ED14CD19DDA56EC18F0E552E552F3CF29
:102A800040F59BDA02E1000E03D0DED901E0010E31
:102A9000000901E03CD13AD103C5E6FF89DA0ADA40
:102AA00002E1000E03D0D0D901E0010E000901E0DF
:102AB0002ED12CD10001C26B8C50010B146E8C50A6
:102AC000020B01E0010E145C03E18C708C721FD1CB
:102AD0008CA002D08C821BD18C9219D1E4EC1BF01B
:102AE000BAD902E1000E03D0AFD901E0010E00090E
:102AF00001E00DD10BD103EC1CF0ADD902E1000EC9
:102B000003D0A2D901E0010E000901E000D1FED0FE
:102B100001510001BC6FBD6B050102510001BA6F8C
:102B2000BB6B040E05010303F3500001B86FB96BD2
:102B3000EED0406B42DA02E1000E03D085D901E00D
:102B4000010E000901E19AD90501015100017F6FD1
:102B5000806B050102510001816F826BE4D9000E88
:102B6000E66EE66AC5EC1AF0E552E552BAC0E6FF39
:102B700075EC1CF0E552000EE66EE66A3EEC1CF0C9
:102B8000E552E552BCD9BAC0E6FF50EC1BF0E55265
:102B9000000EE66EE66A22EC1CF0E552E552B9D969
:102BA0000001BD5100018419E8AE02D0843501D086
:102BB000CAD90BE30001BD5100018619E8AE02D06D
:102BC000863501D0C8D901E3A2D0060E086E096A85
:102BD00083C00DF084C00EF023EC1BF00001B45153
:102BE0000624146EB5510720156E00017B51835DDC
:102BF000166E84517C55176E145016240001B46F64
:102C000015501720B56F060E086E096A85C00DF0C5
:102C100086C00EF023EC1BF00001B6510624146EA2
:102C2000B7510720156E00017D51855D166E8651E6
:102C30007E55176E145016240001B66F15501720DC
:102C4000B76FB451B85DB551B95904E2B8C0B4F02A
:102C5000B9C0B5F0B651B85DB751B95904E2B8C0C2
:102C6000B6F0B9C0B7F083C07BF084C07CF047D920
:102C700085C07DF086C07EF04CD90001BD510001B9
:102C80008419E8AE02D0843501D05DD90FE300018C
:102C9000BD5100018619E8AE02D0863501D05BD95E
:102CA00005E3F3EC1CF0F6EC1CF07AD76AD9E55298
:102CB000E5526DD9E552E55273D7810E406F81A878
:102CC00003D0010E416F01D0416B77D902E1000EB4
:102CD00003D0BAD801E0010E000919E117D06DD96F
:102CE00002E1000E03D0B0D801E0010E00090FE1AF
:102CF00054D933D8F3CFDEFFF4CFDDFF0501370E13
:102D0000406FDFCF41F5010EDBCF42F5B7D8C4D815
:102D1000020EE15C02E2E16AE552E16E45D18150CA
:102D2000100B01E0010E0001605D07E08150100B07
:102D300001E0010E606F81A8010C000C8150200B96
:102D400001E0010E0001615D07E08150200B01E010
:102D5000010E616F81AA010C000C0CD91ED9C28230
:102D6000C2B2FED7C350DF6E010EC4CFDBFFDECF91
:102D700014F0DDCF15F014C0F3FF15C0F4FF020E00
:102D8000E15C02E2E16AE552E16E0ED10001C3515D
:102D9000C41104E1100EC36F270EC46FC307000EE9
:102DA000C45B6DA207D0C351C4112EE18C708CB0EE
:102DB00013D027D000018B5102E18C9022D08B05DB
:102DC00002E18C8009D0020E8B5D02E18C8019D06B
:102DD000040E8B5D03E18C908C821200100E8B5DD3
:102DE00006E10001C351C4110FE18C700AD0200E1E
:102DF0008B5D0AE10001C351C41106E18C708CA007
:102E000002D08C9212008C8212001200120012006A
:102E10001200E9EF17F012001E0EE66E010EE66ECC
:102E20001EEC12F0E552E5524CEF17F06D840001F4
:102E3000080E896F070E8A6F8907000E8A5B895119
:102E40008A11FAE16D941200C0C0E9FFC1C0EAFF27
:102E5000EF50800B1200F3CF87F0F4CF88F0000121
:102E6000F3500501406F000E0001F314FF0EF4143F
:102E7000146E156AE8CF41F5DDEF17F0400EE66EEF
:102E8000400EE66E050EE66E010EE66E9AD8F3CFA2
:102E9000C0F0F4CFC1F01200400EE66E000EE66EF8
:102EA000050EE66EE66A010E8CD8F3CFBEF0F4CFC5
:102EB000BFF012001FEC1AF0E552E552E552050191
:102EC000406F416FDDEF17F0E66E56EC18F0E552FB
:102ED000E5521200DA0E146E390E156E166A14C021
:102EE000E6FFE66E16C0E6FF1200E66A080EE66E22
:102EF0005AEC1CF0E552E552090EC86E120003ECC4
:102F00001CF0F35000017F5D836FF4508059846F93
:102F10001200E4EC1BF0F3500001815D856FF4506A
:102F20008259866F1200000EE66EE66AF4EC1AF023
:102F3000E552E552120005010351000EF350146EE4
:102F4000156AF350120083510001BC5D00018451E9
:102F50000001BD59120085510001BC5D0001865180
:102F60000001BD591200DACFE4FFE652E552E5CF89
:102F7000DAFF1200D9CFE6FFE1CFD9FF020EE1263A
:102F80001200B4C0E6FFB5C0E6FFF4EF1AF0B6C019
:102F9000E6FFB7C0E6FFC5EF1AF09280010EC26EE1
:102FA0003C0EC06EC08E1200E552E7CFD9FF120072
:102FB00002C5E6FF01C5E6FF12000001C051C111C4
:102FC0001200E66E52EC12F0146E050EE15E145023
:022FD0001200ED
:0E2FD200040120511F0B010801E012002451E0
:102FE00001E01200060E215D21E12351230A1BE0BE
:102FF000010A0CE0030A1AE100018C0517E1000147
:103000004E0E9C6F330E9D6F090E09D000018C058A
:103010000DE10001950E9C6F330E9D6F1D0E9F6F8D
:10302000A06BC00E02D00001800E9E6F04012051E3
:10303000600BE842E842E842E842E842010801E069
:10304000120021510B0A2AE0080A1DE0090A15E0C6
:10305000080A09E00B0A05E0080A01E0120054EF33
:1030600018F055EF18F00001CF0E9C6F000E9D6F09
:10307000010E9F6FA06BC10E0FD00001800E9E6FDE
:1030800023C4CFF012000001D00E9C6F000E9D6F84
:10309000010E9F6FA06B810E9E6F12000001800ECB
:0C30A0009E6F22C4D0F01200120012003B
:0430AC00D9CFE6FF93
:1030B000DACFE6FFE1CFD9FFE2CFDAFFC750040B4A
:1030C00001E0010E146E1F0EC5141410F7E1C58047
:1030D000C5B0FED7A1B627D0FD0E38D814E1C5BCC7
:1030E00026D0FC0E33D80FE1C5BC1FD0C582C5B2B7
:1030F000FED7A1B618D0FD0EDB28E66E7CEC1BF0E7
:10310000E552000902E0FD0E13D0C5BC0ED0C58605
:10311000C5B6FED7C58AC588C5B8FED7C584C5B4AF
:10312000FED7A1A608D0F36804D0FE0E01D0FE0E93
:10313000F36EF46805D0C950156AF36E15C0F4FF3C
:10314000E552E5CFDAFFE7CFD9FF1200DBCFE6FF8C
:0A3150007CEC1BF0E55200091200B0
:06315A002A0EF66E100EB5
:10316000F76E000EF86E00010900F550CA6F0900F5
:10317000F550CB6F03E1CA6701D03DD00900F5508F
:10318000C56F0900F550C66F0900F550C76F0900FB
:103190000900F550E96E0900F550EA6E09000900D2
:1031A0000900F550C86F0900F550C96F0900090002
:1031B000F6CFCCF0F7CFCDF0F8CFCEF0C5C0F6FF0C
:1031C000C6C0F7FFC7C0F8FF0001C85302E1C953EA
:1031D00007E00900F550EE6EC807F8E2C907F9D715
:1031E000CCC0F6FFCDC0F7FFCEC0F8FF0001CA0784
:0831F000000ECB5BBFD71200FB
:0831F800FE0EE3CFE9FFFF0E1C
:10320000E3CFEAFFE9CFF3FFEACFF4FFFB0EE35091
:1032100003E1FC0EE35009E0FB0EE30602E2FC0EC4
:10322000E306FD0EE350EE6EF1D71200FE0EE3CF83
:10323000E9FFFF0EE3CFEAFFF36AF46AEE5203E020
:10324000F34AF42AFBD71200FF0EE3CFF8FFE55252
:10325000FF0EE3CFF7FFE552FF0EE3CFF6FFE55297
:10326000E66AE66AE66A0900F55209E0FD0EE32A1D
:1032700005E1FE0EE32A02E1FF0EE32AF4D7FD0E7C
:10328000E3CF07F0FE0EE3CF08F0FF0EE3CF09F027
:0232900012002A
:0E329200D9CFE6FFDACFE6FFE1CFD9FFE2CFDA
:1032A000DAFFE652E652E652E652D950FB0F146EB0
:1032B000FF0EDA20156E14C0DEFFDD6EDECFE6FFF6
:1032C000DDCFE6FFFB0EDBCFE6FFFC0EDBCFE6FF3C
:1032D000FD0EDBCFE6FFD2C0E6FFD3C0E6FF38EC41
:1032E00008F0146E070EE15C02E2E16AE552E16E5D
:1032F0001450020EF3CFDBFF030EF4CFDBFF020E00
:10330000DBCF14F0030EDBCF15F014C0F3FF15C0B4
:10331000F4FF040EE15C02E2E16AE552E16EE5527F
:0A332000E5CFDAFFE7CFD9FF120076
:06332A0012010002000088
:103330000008D8043F000200010200010902290030
:10334000010100C03209040000020300000009214D
:1033500011010001221D000705810340000107053E
:103360000103400001040309041E03530047002029
:103370000054006500630068006E006F006C006F11
:1033800000670079002E000E034A006F0068006E8F
:10339000006E0079000600FF0901A1011901294012
:1033A000150026FF007508954081021901294091FA
:0A33B00002C03C33653369338733F4
:0633BA00D9CFE6FFDACFD7
:1033C000E6FFE1CFD9FFE2CFDAFFFB0EDBCF14F04F
:1033D000FC0EDBCF15F00001800E15141AE1FB0E78
:1033E000DBCFE9FFFC0EDBCFEAFFEECFF3FFEDCF43
:1033F000F4FFEE2A000EEF22F3CFE9FFF4CFEAFF4D
:10340000FD0EDBCFEFFFEF50156AF36E15C0F4FF32
:1034100010D0FB0EDB50FE0806E1FD0EDBCFE6FF11
:10342000C4EC1CF005D0FD0EDBCFE6FFF8EC1CF081
:0E343000E552E552E5CFDAFFE7CFD9FF1200F3
:02343E00D9CFE4
:10344000E6FFDACFE6FFE1CFD9FFE2CFDAFFC750E0
:10345000040B01E0010E146E1F0EC5141410F7E1E9
:10346000C580C5B0FED7A1B616D0FD0E1DD80AE1A5
:10347000C5BC0AD0FC0E18D805E1C5BC05D0FB0EB2
:1034800013D804E0FD0E0AD0FE0E08D0C584C5B4E2
:10349000FED7A1A602D0FF0E01D0000EE552E5CF67
:1034A000DAFFE7CFD9FF1200DBCFE6FF7CEC1BF0A1
:0634B000E55200091200C4
:0A34B60006500B02F3CF02F0F4CF32
:1034C00003F00C02F3500326000EF420046E0650A5
:1034D0000D02F3500426000EF420056E06500E0275
:1034E000F350052607500B02F3500326F450042234
:1034F000000E052207500C02F3500426F45005225A
:1035000007500D02F350052608500B02F350042615
:10351000F450052208500C02F350052609500B0206
:06352000F3500526120025
:0A352600D9CFE6FFDACFE6FFE1CFD0
:10353000D9FFE2CFDAFFACA2FED7FB0EDBCFF6FF5E
:10354000FC0EDBCFF7FFFD0EDBCFF8FF0800F550D8
:10355000E66E8DEC1CF0E552D950FB0FE96EFF0EC4
:10356000DA20EA6EEFCFF6FFEE2AEFCFF7FF000E7C
:10357000EE22EFCFF8FFEE220800F550DCE1E55235
:0A358000E5CFDAFFE7CFD9FF120014
:06358A00D9CFE6FFDACF05
:10359000E6FFE1CFD9FFE2CFDAFFE652E652FC0EBA
:1035A000DBCF14F0FD0EDBCF15F0060ED8901436ED
:1035B0001536E804FBE114C0DEFF15C0DDFF010E87
:1035C000DB50BB6EDF50E840E8403F0B300B146E21
:1035D000CF0EBA141410BA6EE552E552E552E5CF9B
:0835E000DAFFE7CFD9FF12006A
:0835E800D9CFE6FFDACFE6FFC0
:1035F000E1CFD9FFE2CFDAFFE652E652FC0EDBCF95
:1036000014F0FD0EDBCF15F0060ED89014361536EB
:10361000E804FBE114C0DEFF15C0DDFF010EDB5046
:10362000BE6EDF50E840E8403F0B300B146ECF0E0B
:10363000BD141410BD6EE552E552E552E5CFDAFF38
:06364000E7CFD9FF1200E4
:0A36460009C013F008C012F008508C
:103650000D02F4CF07F0F3CF06F009500E02F4CFBD
:1036600009F0F3CF08F00D02F3500726F4500822BA
:10367000E86A092212500E02F3500726F45008227D
:10368000E86A09220EAE49EF1BF01250085E135093
:10369000095A13AE000C0D50085E0E50095A000C6A
:1036A000D9CFE6FFDACFE6FFE1CFD9FFE2CFDAFFED
:1036B000E652E6520C0EBA6E050EF66EF76A300E42
:1036C000F86E0800F550010B03E0010EDB6802D034
:1036D000010EDB6ADB5002E0949201D09396CA940B
:1036E000FD0EDB50CB6ECA84E552E552E552E5CFC4
:0836F000DAFFE7CFD9FF120059
:0836F800D9CFE6FFDACFE6FFAF
:10370000E1CFD9FFE2CFDAFFFD0EDB50C96EC6AEC6
:1037100002D0FF0E10D0C7B0FED7C750040B01E097
:10372000010E146E1F0EC5141410F7E1C5AC02D0C3
:10373000FE0E01D0000EE552E5CFDAFFE7CFD9FF4C
:02374000120075
:0E374200056A046A036A026A200EE76ED890D8
:10375000063607360836093602360336043605368D
:103760000B50025C0C5003580D5004580E50055875
:1037700009E30B50025E0C50035A0D50045A0E50D0
:0A378000055A062AE72EE4D71200CE
:06378A00D9CFE6FFDACF03
:10379000E6FFE1CFD9FFE2CFDAFFE652F20E0001F9
:1037A000D417ABAC03D0D491ABB0D481ABB4D48537
:1037B000ABB2D487AE50DF6EDF50E552E552E5CFB5
:0837C000DAFFE7CFD9FF120088
:0837C800D9CFE6FFDACFE6FFDE
:1037D000E1CFD9FFE2CFDAFFE652E652CE50DF6EFC
:1037E000010ECFCFDBFFDECF14F0DDCF15F014C01C
:1037F000F3FF15C0F4FFE552E552E552E5CFDAFFDD
:06380000E7CFD9FF120022
:0A380600D9CFE6FFDACFE6FFE1CFED
:10381000D9FFE2CFDAFFE652E652D650DF6E010E54
:10382000D7CFDBFFDECF14F0DDCF15F014C0F3FFF0
:1038300015C0F4FFE552E552E552E5CFDAFFE7CFD8
:04384000D9FF12009A
:0C384400D9CFE6FFDACFE6FFE1CFD9FFD5
:10385000E2CFDAFFE652E652FC0EDBCFDEFFDBCF33
:10386000DDFF010EDB50CF6EDF50CE6EE552E5522C
:0C387000E552E5CFDAFFE7CFD9FF1200E8
:04387C00D9CFE6FFBB
:10388000DACFE6FFE1CFD9FFE2CFDAFFE652E65228
:10389000FC0EDBCFDEFFDBCFDDFF010EDB50D76E92
:1038A000DF50D66EE552E552E552E5CFDAFFE7CFBD
:0438B000D9FF12002A
:0C38B400D9CFE6FFDACFE6FFE1CFD9FF65
:1038C000E2CFDAFF3F0EC716C66AC56AFD0EDB50AF
:1038D000C612FC0EDB50C71293829380C68AE55253
:0A38E000E5CFDAFFE7CFD9FF1200B1
:0638EA00D9CFE6FFDACFA2
:1038F000E6FFE1CFD9FFE2CFDAFF0C0EBD129494C0
:10390000CA94FD0EDB50CB6ECA84E552E5CFDAFFD8
:0A391000E7CFD9FF120094941200D3
:06391A00D9CFE6FFDACF71
:10392000E6FFE1CFD9FFE2CFDAFFACAC04D0AC9038
:103930000001D4B3AC80FD0EDB50AD6EE552E5CF97
:08394000DAFFE7CFD9FF120006
:08394800F36AF46AFF0EE124AA
:10395000E96EFF0EE220EA6EED6607D02F0EEF64EF
:0C39600004D03A0EEF6001D0F32A1200F0
:04396C0013EE00F066
:1039700023EE00F0F86A019CADEC18F0F9EC1CF0B5
:08398000C2EC13F0FBD71200AA
:08398800FF0EE350ACBA04D0BD
:10399000AF6AAB8EAC8A949CACA2FED7AD6EF36ED0
:0439A000F46A1200B3
:0C39A400FF0EE350E84E1200000000D0BF
:0A39B00000D000D0E82EFAD7120074
:0639BA00303132333435D8
:0B39C0003637383961626364656600C9
:0439CC0000EE00F019
:0A39D0000F0EEE6AEA62FDD7120046
:0639DA0048656C6C6F20D3
:0639E000576F726C6400D9
:0639E600BD6A948412008A
:0439EC00BA6A1200A1
:0239F0001200C3
:0239F2001200C1
:0239F400FEFFD4
:0A39F6000000000000000000C800FF
:0B3A0000460000000000000001000074
:020000040030CA
:0100000024DB
:010001000EF0
:010002003FBE
:010003001EDE
:010005008179
:010006008178
:010008000FE8
:01000900C036
:01000A000FE6
:01000B00E014
:01000C000FE4
:01000D0040B2
:00000001FF
